{
  "_format": "hh-sol-artifact-1",
  "contractName": "Morgage",
  "sourceName": "contracts/Morgage.sol",
  "abi": [
    {
      "inputs": [
        {
          "internalType": "address",
          "name": "_borrower",
          "type": "address"
        },
        {
          "internalType": "uint256",
          "name": "_loanAmount",
          "type": "uint256"
        },
        {
          "internalType": "uint256",
          "name": "_interestRate",
          "type": "uint256"
        },
        {
          "internalType": "uint256",
          "name": "_loanTerm",
          "type": "uint256"
        }
      ],
      "stateMutability": "nonpayable",
      "type": "constructor"
    },
    {
      "anonymous": false,
      "inputs": [
        {
          "indexed": false,
          "internalType": "uint256",
          "name": "newLoanAmount",
          "type": "uint256"
        },
        {
          "indexed": false,
          "internalType": "uint256",
          "name": "newInterestRate",
          "type": "uint256"
        },
        {
          "indexed": false,
          "internalType": "uint256",
          "name": "newLoanTerm",
          "type": "uint256"
        }
      ],
      "name": "LoanDetailsUpdated",
      "type": "event"
    },
    {
      "anonymous": false,
      "inputs": [
        {
          "indexed": false,
          "internalType": "address",
          "name": "borrower",
          "type": "address"
        },
        {
          "indexed": false,
          "internalType": "uint256",
          "name": "loanAmount",
          "type": "uint256"
        },
        {
          "indexed": false,
          "internalType": "uint256",
          "name": "interestRate",
          "type": "uint256"
        },
        {
          "indexed": false,
          "internalType": "uint256",
          "name": "loanTerm",
          "type": "uint256"
        }
      ],
      "name": "MortgageCreated",
      "type": "event"
    },
    {
      "anonymous": false,
      "inputs": [
        {
          "indexed": false,
          "internalType": "address",
          "name": "borrower",
          "type": "address"
        },
        {
          "indexed": false,
          "internalType": "uint256",
          "name": "amount",
          "type": "uint256"
        },
        {
          "indexed": false,
          "internalType": "uint256",
          "name": "balance",
          "type": "uint256"
        }
      ],
      "name": "PaymentMade",
      "type": "event"
    },
    {
      "inputs": [],
      "name": "balance",
      "outputs": [
        {
          "internalType": "uint256",
          "name": "",
          "type": "uint256"
        }
      ],
      "stateMutability": "view",
      "type": "function"
    },
    {
      "inputs": [],
      "name": "borrower",
      "outputs": [
        {
          "internalType": "address",
          "name": "",
          "type": "address"
        }
      ],
      "stateMutability": "view",
      "type": "function"
    },
    {
      "inputs": [
        {
          "internalType": "uint256",
          "name": "_loanAmount",
          "type": "uint256"
        },
        {
          "internalType": "uint256",
          "name": "_interestRate",
          "type": "uint256"
        },
        {
          "internalType": "uint256",
          "name": "_loanTerm",
          "type": "uint256"
        }
      ],
      "name": "calculateMonthlyPayment",
      "outputs": [
        {
          "internalType": "uint256",
          "name": "",
          "type": "uint256"
        }
      ],
      "stateMutability": "pure",
      "type": "function"
    },
    {
      "inputs": [],
      "name": "getBalance",
      "outputs": [
        {
          "internalType": "uint256",
          "name": "",
          "type": "uint256"
        }
      ],
      "stateMutability": "view",
      "type": "function"
    },
    {
      "inputs": [],
      "name": "getLoanDetails",
      "outputs": [
        {
          "internalType": "address",
          "name": "_lender",
          "type": "address"
        },
        {
          "internalType": "address",
          "name": "_borrower",
          "type": "address"
        },
        {
          "internalType": "uint256",
          "name": "_loanAmount",
          "type": "uint256"
        },
        {
          "internalType": "uint256",
          "name": "_interestRate",
          "type": "uint256"
        },
        {
          "internalType": "uint256",
          "name": "_loanTerm",
          "type": "uint256"
        },
        {
          "internalType": "uint256",
          "name": "_monthlyPayment",
          "type": "uint256"
        },
        {
          "internalType": "uint256",
          "name": "_balance",
          "type": "uint256"
        },
        {
          "internalType": "uint256",
          "name": "_startTime",
          "type": "uint256"
        }
      ],
      "stateMutability": "view",
      "type": "function"
    },
    {
      "inputs": [],
      "name": "getMonthlyPayment",
      "outputs": [
        {
          "internalType": "uint256",
          "name": "",
          "type": "uint256"
        }
      ],
      "stateMutability": "view",
      "type": "function"
    },
    {
      "inputs": [],
      "name": "getRemainingTerm",
      "outputs": [
        {
          "internalType": "uint256",
          "name": "",
          "type": "uint256"
        }
      ],
      "stateMutability": "view",
      "type": "function"
    },
    {
      "inputs": [],
      "name": "interestRate",
      "outputs": [
        {
          "internalType": "uint256",
          "name": "",
          "type": "uint256"
        }
      ],
      "stateMutability": "view",
      "type": "function"
    },
    {
      "inputs": [],
      "name": "lender",
      "outputs": [
        {
          "internalType": "address",
          "name": "",
          "type": "address"
        }
      ],
      "stateMutability": "view",
      "type": "function"
    },
    {
      "inputs": [],
      "name": "loanAmount",
      "outputs": [
        {
          "internalType": "uint256",
          "name": "",
          "type": "uint256"
        }
      ],
      "stateMutability": "view",
      "type": "function"
    },
    {
      "inputs": [],
      "name": "loanTerm",
      "outputs": [
        {
          "internalType": "uint256",
          "name": "",
          "type": "uint256"
        }
      ],
      "stateMutability": "view",
      "type": "function"
    },
    {
      "inputs": [],
      "name": "makePayment",
      "outputs": [],
      "stateMutability": "payable",
      "type": "function"
    },
    {
      "inputs": [],
      "name": "monthlyPayment",
      "outputs": [
        {
          "internalType": "uint256",
          "name": "",
          "type": "uint256"
        }
      ],
      "stateMutability": "view",
      "type": "function"
    },
    {
      "inputs": [],
      "name": "startTime",
      "outputs": [
        {
          "internalType": "uint256",
          "name": "",
          "type": "uint256"
        }
      ],
      "stateMutability": "view",
      "type": "function"
    }
  ],
  "bytecode": "0x60806040523480156200001157600080fd5b506040516200174838038062001748833981810160405281019062000037919062000344565b336000806101000a81548173ffffffffffffffffffffffffffffffffffffffff021916908373ffffffffffffffffffffffffffffffffffffffff16021790555083600160006101000a81548173ffffffffffffffffffffffffffffffffffffffff021916908373ffffffffffffffffffffffffffffffffffffffff1602179055508260028190555081600381905550806004819055508260068190555042600781905550620000ee8383836200013d60201b60201c565b6005819055507f17209a4d379493b9695b62ed8c0b1756edc8b802736cfabbe9e299ab90878ffd848484846040516200012b9493929190620003d8565b60405180910390a150505050620008d4565b600080831162000184576040517f08c379a00000000000000000000000000000000000000000000000000000000081526004016200017b90620004ac565b60405180910390fd5b60008211620001ca576040517f08c379a0000000000000000000000000000000000000000000000000000000008152600401620001c1906200051e565b60405180910390fd5b6000600c84620001db91906200059e565b90506000606482620001ee91906200059e565b905060008187620002009190620005d6565b905060008583600162000214919062000621565b620002209190620007b0565b60016200022e91906200059e565b60016200023c919062000801565b90506000811162000284576040517f08c379a00000000000000000000000000000000000000000000000000000000081526004016200027b90620008b2565b60405180910390fd5b80826200029291906200059e565b9450505050509392505050565b600080fd5b600073ffffffffffffffffffffffffffffffffffffffff82169050919050565b6000620002d182620002a4565b9050919050565b620002e381620002c4565b8114620002ef57600080fd5b50565b6000815190506200030381620002d8565b92915050565b6000819050919050565b6200031e8162000309565b81146200032a57600080fd5b50565b6000815190506200033e8162000313565b92915050565b600080600080608085870312156200036157620003606200029f565b5b60006200037187828801620002f2565b945050602062000384878288016200032d565b935050604062000397878288016200032d565b9250506060620003aa878288016200032d565b91505092959194509250565b620003c181620002c4565b82525050565b620003d28162000309565b82525050565b6000608082019050620003ef6000830187620003b6565b620003fe6020830186620003c7565b6200040d6040830185620003c7565b6200041c6060830184620003c7565b95945050505050565b600082825260208201905092915050565b7f496e7465726573742072617465206d757374206265206772656174657220746860008201527f616e203000000000000000000000000000000000000000000000000000000000602082015250565b60006200049460248362000425565b9150620004a18262000436565b604082019050919050565b60006020820190508181036000830152620004c78162000485565b9050919050565b7f4c6f616e207465726d206d7573742062652067726561746572207468616e2030600082015250565b60006200050660208362000425565b91506200051382620004ce565b602082019050919050565b600060208201905081810360008301526200053981620004f7565b9050919050565b7f4e487b7100000000000000000000000000000000000000000000000000000000600052601260045260246000fd5b7f4e487b7100000000000000000000000000000000000000000000000000000000600052601160045260246000fd5b6000620005ab8262000309565b9150620005b88362000309565b925082620005cb57620005ca62000540565b5b828204905092915050565b6000620005e38262000309565b9150620005f08362000309565b9250828202620006008162000309565b915082820484148315176200061a57620006196200056f565b5b5092915050565b60006200062e8262000309565b91506200063b8362000309565b92508282019050808211156200065657620006556200056f565b5b92915050565b60008160011c9050919050565b6000808291508390505b6001851115620006bb578086048111156200069357620006926200056f565b5b6001851615620006a35780820291505b8081029050620006b3856200065c565b945062000673565b94509492505050565b600082620006d65760019050620007a9565b81620006e65760009050620007a9565b8160018114620006ff57600281146200070a5762000740565b6001915050620007a9565b60ff8411156200071f576200071e6200056f565b5b8360020a9150848211156200073957620007386200056f565b5b50620007a9565b5060208310610133831016604e8410600b84101617156200077a5782820a9050838111156200077457620007736200056f565b5b620007a9565b62000789848484600162000669565b92509050818404811115620007a357620007a26200056f565b5b81810290505b9392505050565b6000620007bd8262000309565b9150620007ca8362000309565b9250620007f97fffffffffffffffffffffffffffffffffffffffffffffffffffffffffffffffff8484620006c4565b905092915050565b60006200080e8262000309565b91506200081b8362000309565b92508282039050818111156200083657620008356200056f565b5b92915050565b7f44656e6f6d696e61746f72206d7573742062652067726561746572207468616e60008201527f2030000000000000000000000000000000000000000000000000000000000000602082015250565b60006200089a60228362000425565b9150620008a7826200083c565b604082019050919050565b60006020820190508181036000830152620008cd816200088b565b9050919050565b610e6480620008e46000396000f3fe6080604052600436106100dd5760003560e01c8063a3b9e39d1161007f578063cfc455ba11610059578063cfc455ba14610297578063d8d79700146102d4578063ddfd2acb146102de578063f75dbeef14610309576100dd565b8063a3b9e39d1461020f578063b69ef8a814610241578063bcead63e1461026c576100dd565b80637c3a00fd116100bb5780637c3a00fd146101635780637df1f1b91461018e5780638efb21a3146101b95780639d585f7f146101e4576100dd565b806312065fe0146100e25780633577d94e1461010d57806378e9792514610138575b600080fd5b3480156100ee57600080fd5b506100f7610334565b6040516101049190610728565b60405180910390f35b34801561011957600080fd5b5061012261033e565b60405161012f9190610728565b60405180910390f35b34801561014457600080fd5b5061014d610344565b60405161015a9190610728565b60405180910390f35b34801561016f57600080fd5b5061017861034a565b6040516101859190610728565b60405180910390f35b34801561019a57600080fd5b506101a3610350565b6040516101b09190610784565b60405180910390f35b3480156101c557600080fd5b506101ce610376565b6040516101db9190610728565b60405180910390f35b3480156101f057600080fd5b506101f9610380565b6040516102069190610728565b60405180910390f35b34801561021b57600080fd5b50610224610386565b60405161023898979695949392919061079f565b60405180910390f35b34801561024d57600080fd5b50610256610402565b6040516102639190610728565b60405180910390f35b34801561027857600080fd5b50610281610408565b60405161028e9190610784565b60405180910390f35b3480156102a357600080fd5b506102be60048036038101906102b9919061084e565b61042c565b6040516102cb9190610728565b60405180910390f35b6102dc610575565b005b3480156102ea57600080fd5b506102f36106c3565b6040516103009190610728565b60405180910390f35b34801561031557600080fd5b5061031e610709565b60405161032b9190610728565b60405180910390f35b6000600654905090565b60045481565b60075481565b60035481565b600160009054906101000a900473ffffffffffffffffffffffffffffffffffffffff1681565b6000600554905090565b60025481565b60008060008060008060008060008054906101000a900473ffffffffffffffffffffffffffffffffffffffff169750600160009054906101000a900473ffffffffffffffffffffffffffffffffffffffff1696506002549550600354945060045493506005549250600654915060075490509091929394959697565b60065481565b60008054906101000a900473ffffffffffffffffffffffffffffffffffffffff1681565b6000808311610470576040517f08c379a000000000000000000000000000000000000000000000000000000000815260040161046790610924565b60405180910390fd5b600082116104b3576040517f08c379a00000000000000000000000000000000000000000000000000000000081526004016104aa90610990565b60405180910390fd5b6000600c846104c29190610a0e565b905060006064826104d39190610a0e565b9050600081876104e39190610a3f565b90506000858360016104f59190610a81565b6104ff9190610be8565b600161050b9190610a0e565b60016105179190610c33565b90506000811161055c576040517f08c379a000000000000000000000000000000000000000000000000000000000815260040161055390610cd9565b60405180910390fd5b80826105689190610a0e565b9450505050509392505050565b600160009054906101000a900473ffffffffffffffffffffffffffffffffffffffff1673ffffffffffffffffffffffffffffffffffffffff163373ffffffffffffffffffffffffffffffffffffffff1614610605576040517f08c379a00000000000000000000000000000000000000000000000000000000081526004016105fc90610d6b565b60405180910390fd5b6005543414610649576040517f08c379a000000000000000000000000000000000000000000000000000000000815260040161064090610dd7565b60405180910390fd5b346006600082825461065b9190610c33565b925050819055507fc65a4e529c0450a515882508bea7ee3485fbfdf8436e0bd13dc38dfbc859b1cb600160009054906101000a900473ffffffffffffffffffffffffffffffffffffffff16346006546040516106b993929190610df7565b60405180910390a1565b60008062278d00600754426106d89190610c33565b6106e29190610a0e565b905080600454116106f4576000610703565b806004546107029190610c33565b5b91505090565b60055481565b6000819050919050565b6107228161070f565b82525050565b600060208201905061073d6000830184610719565b92915050565b600073ffffffffffffffffffffffffffffffffffffffff82169050919050565b600061076e82610743565b9050919050565b61077e81610763565b82525050565b60006020820190506107996000830184610775565b92915050565b6000610100820190506107b5600083018b610775565b6107c2602083018a610775565b6107cf6040830189610719565b6107dc6060830188610719565b6107e96080830187610719565b6107f660a0830186610719565b61080360c0830185610719565b61081060e0830184610719565b9998505050505050505050565b600080fd5b61082b8161070f565b811461083657600080fd5b50565b60008135905061084881610822565b92915050565b6000806000606084860312156108675761086661081d565b5b600061087586828701610839565b935050602061088686828701610839565b925050604061089786828701610839565b9150509250925092565b600082825260208201905092915050565b7f496e7465726573742072617465206d757374206265206772656174657220746860008201527f616e203000000000000000000000000000000000000000000000000000000000602082015250565b600061090e6024836108a1565b9150610919826108b2565b604082019050919050565b6000602082019050818103600083015261093d81610901565b9050919050565b7f4c6f616e207465726d206d7573742062652067726561746572207468616e2030600082015250565b600061097a6020836108a1565b915061098582610944565b602082019050919050565b600060208201905081810360008301526109a98161096d565b9050919050565b7f4e487b7100000000000000000000000000000000000000000000000000000000600052601260045260246000fd5b7f4e487b7100000000000000000000000000000000000000000000000000000000600052601160045260246000fd5b6000610a198261070f565b9150610a248361070f565b925082610a3457610a336109b0565b5b828204905092915050565b6000610a4a8261070f565b9150610a558361070f565b9250828202610a638161070f565b91508282048414831517610a7a57610a796109df565b5b5092915050565b6000610a8c8261070f565b9150610a978361070f565b9250828201905080821115610aaf57610aae6109df565b5b92915050565b60008160011c9050919050565b6000808291508390505b6001851115610b0c57808604811115610ae857610ae76109df565b5b6001851615610af75780820291505b8081029050610b0585610ab5565b9450610acc565b94509492505050565b600082610b255760019050610be1565b81610b335760009050610be1565b8160018114610b495760028114610b5357610b82565b6001915050610be1565b60ff841115610b6557610b646109df565b5b8360020a915084821115610b7c57610b7b6109df565b5b50610be1565b5060208310610133831016604e8410600b8410161715610bb75782820a905083811115610bb257610bb16109df565b5b610be1565b610bc48484846001610ac2565b92509050818404811115610bdb57610bda6109df565b5b81810290505b9392505050565b6000610bf38261070f565b9150610bfe8361070f565b9250610c2b7fffffffffffffffffffffffffffffffffffffffffffffffffffffffffffffffff8484610b15565b905092915050565b6000610c3e8261070f565b9150610c498361070f565b9250828203905081811115610c6157610c606109df565b5b92915050565b7f44656e6f6d696e61746f72206d7573742062652067726561746572207468616e60008201527f2030000000000000000000000000000000000000000000000000000000000000602082015250565b6000610cc36022836108a1565b9150610cce82610c67565b604082019050919050565b60006020820190508181036000830152610cf281610cb6565b9050919050565b7f4f6e6c792074686520626f72726f7765722063616e206d616b65207061796d6560008201527f6e74730000000000000000000000000000000000000000000000000000000000602082015250565b6000610d556023836108a1565b9150610d6082610cf9565b604082019050919050565b60006020820190508181036000830152610d8481610d48565b9050919050565b7f496e636f7272656374207061796d656e7420616d6f756e740000000000000000600082015250565b6000610dc16018836108a1565b9150610dcc82610d8b565b602082019050919050565b60006020820190508181036000830152610df081610db4565b9050919050565b6000606082019050610e0c6000830186610775565b610e196020830185610719565b610e266040830184610719565b94935050505056fea2646970667358221220ad19fc2803d70cae551fa53d86f3fdd36bd5abdf0baf72e8b5287290cc5c74a764736f6c63430008180033",
  "linkReferences": {},
  "deployedLinkReferences": {}
}